:100000000C9434000C9449000C9449000C94490061
:100010000C9449000C9449000C9449000C9449003C
:100020000C9449000C9449000C9449000C9449002C
:100030000C9449000C9449000C9449000C9449001C
:100040000C9449000C9449000C9449000C9449000C
:100050000C9449000C9449000C9449000C944900FC
:100060000C9449000C94490011241FBECFEFD8E036
:10007000DEBFCDBF11E0A0E0B1E0ECEEF0E002C0E9
:1000800005900D92A430B107D9F70E944B000C9453
:1000900074000C94000084B18FEF84B9339BFECFC1
:1000A000E0E0F1E0808185B92FE986E891E0215018
:1000B00080409040E1F700C00000818185B92FE9C0
:1000C00086E891E0215080409040E1F700C00000B8
:1000D000828185B92FE986E891E0215080409040E7
:0C00E000E1F700C00000DECFF894FFCF75
:0400EC003F065B0070
:00000001FF
