S0150000446973706C61795F375F5365672E7372656325
S11300000C9434000C9449000C9449000C9449005D
S11300100C9449000C9449000C9449000C94490038
S11300200C9449000C9449000C9449000C94490028
S11300300C9449000C9449000C9449000C94490018
S11300400C9449000C9449000C9449000C94490008
S11300500C9449000C9449000C9449000C944900F8
S11300600C9449000C94490011241FBECFEFD8E032
S1130070DEBFCDBF11E0A0E0B1E0ECEFF0E002C0E4
S113008005900D92A630B107D9F70E944B000C944D
S11300907C000C94000084B18FEF84B93898309BB5
S11300A0FECF31E060E051E040E0309918C015C067
S11300B0342F0196219125B9329919C02FE976E898
S11300C0A1E021507040A040E1F700C0000085305D
S11300D091057CF3313019F008C0313031F4E0E09F
S11300E0F1E081E090E0352FE5CF65B9DECF8530D2
S10F00F09105F4F2362FF9CFF894FFCFFD
S10900FC3F065B60FF00FB
S9030000FC
