S01700005072696D65725F50726F6772616D612E7372656306
S11300000C9434000C943E000C943E000C943E007E
S11300100C943E000C943E000C943E000C943E0064
S11300200C943E000C943E000C943E000C943E0054
S11300300C943E000C943E000C943E000C943E0044
S11300400C943E000C943E000C943E000C943E0034
S11300500C943E000C943E000C943E000C943E0024
S11300600C943E000C943E0011241FBECFEFD8E048
S1130070DEBFCDBF0E9440000C9463000C940000CE
S113008080E384B92FE936E891E021503040904074
S1130090E1F700C0000085B92FE936E881E021507E
S11300A030408040E1F700C000002C989FE926E82A
S11300B031E0915020403040E1F700C0000085B1AC
S10D00C0806385B9FFCFF894FFCFE9
S9030000FC
