:100000000C9434000C943E000C943E000C943E0082
:100010000C943E000C943E000C943E000C943E0068
:100020000C943E000C943E000C943E000C943E0058
:100030000C943E000C943E000C943E000C943E0048
:100040000C943E000C943E000C943E000C943E0038
:100050000C943E000C943E000C943E000C943E0028
:100060000C943E000C943E0011241FBECFEFD8E04C
:10007000DEBFCDBF0E9497000C94C6000C94000018
:10008000429A85B94298089580E30E94400084E630
:1000900094E00197F1F700C0000080E30E94400067
:1000A00091E29A95F1F7000080E30E94400089EF09
:1000B00090E00197F1F700C0000088E30E94400043
:1000C00089EF90E00197F1F700C0000088E00E94FE
:1000D000400089EF90E00197F1F700C0000081E057
:1000E0000E94400089EF90E00197F1F700C0000006
:1000F00086E00E94400089EF90E00197F1F700C090
:1001000000008FE00E94400089EF90E00197F1F736
:1001100000C00000089598B1956098B985B94298DB
:1001200089EF90E00197F1F700C00000089584B1D5
:100130008FEF84B987B1876087B90E94440088E453
:100140000E948B008FE60E948B008CE60E948B0041
:1001500081E60E948B0084E088B980EC85B94298E2
:1001600089EF90E00197F1F700C000008DE40E9454
:100170008B0085E70E948B008EE60E948B0084E650
:100180000E948B008FE60E948B00FFCFF894FFCF78
:00000001FF
